:400000000008002011000000C90E0000C90E000008B502F0DFFA00F05FFFC04610B5134C12232360182002F051FA80229200104B1A60104B104A1A60FE2109020F4A116080
:400040000F4A1A6000220F490A600F49196004210E4B19603E310E4B196002390D4B196001310D4B1960226010BDC04630001040080301400000014042FF0080000301404A
:4000800040FF00800403014041FF0080280003400C010140080101400001014008B572B6EE22194B1A60EE221202184B1A600E22174B1A600132174B1A60043A164B1A602C
:4000C000164A174B1A6080221202164B1A60EC23154A13603621154A1160154A1360E93B144A1360D8210901134A1160134A13600122134B1A600432124B1A60FFF78EFF38
:4001000000F04EFF08BDC0460001024000030240000004401800044000010440A4052000080104400C010440000204400802044018020440000304400803044018030440FC
:40014000000404401804044010B5064C2378002B07D1054B002B02D0044800E000BF0123237010BD38010020000000009C30000008B5084B002B03D00748084900E000BFF4
:4001800007480368002B00D108BD064B002BFBD09847F9E7000000009C3000003C010020880000200000000010B5184B5A221A70593A5A70164A117899705178D970917855
:4001C0001971D2785A711A7E9A715A7EDA719A7E1A72DA7E5A72002306E01A1C0A32C45C0A498C540133DBB2082BF6D90022002305E00649C95C8A18D2B20133DBB2122B7F
:40020000F7D95242014BDA7410BDC046540100208C00002010B5002305E0C45CCA5C944205D10133DBB2032BF7D9012000E0002010BDC04610B51B4B1B7F632B31D9194A9A
:4002400000231377537F0133DBB253773B2B28D9141C00235377937F0133DBB29377124A52681370201C2030FFF79EFF1020211C00F0B6FBA37F3B2B13D90B4A137A0133C3
:40028000DBB21372172B0CD900231372D2681370044C201C2030FFF787FF1020211C00F09FFB10BD540100208C00002010B5002490E2201C00F0E8FD002800D141E2C44BCC
:4002C0001B6901221A700B2C00D93AE2A300C14AD3589F46BE4B5B691A78002A01D11A7001E000221A7001213023BB4AD15428E2B74B5B691A78042A02D100221A7011E0D2
:4003000004221A70B24B99690A78082082430A7099690A78083082430A709A69117804230B431370AA4B2322D9690A701B6A37321A7001213023A84AD15402E2A44B5B6915
:400340001B78042B06D1A24BDA691378272B01D8013313709E4B5B691B780B2B06D19C4BDA691378272B01D80133137001213023994AD154E5E1964B5B691B78042B06D1E2
:40038000934BDA6913781E2B01D9013B1370904B5B691B780B2B06D18D4BDA6913781E2B01D9013B1370012130238B4AD154C8E1874B5B691A78032A02D100221A7011E00B
:4003C00003221A70824B99690878042202430A7099690A78082082430A709A69137810218B4313707A4B0022D9690A701B6A1E321A7001213023784AD154A2E1744B5B69BB
:400400001B78012B06D0032B04D0042B02D00B2B00D096E16E4B99690A78042082430A7099690A78043082430A709A69137810218B4313703123684AD35C012B0FD0002B95
:4004400002D0022B16D01FE001213123624AD1545F4B9A69117808230B43137014E0022131235D4AD1545A4B9A69117810230B43137009E0564B9A69117804230B431370A5
:4004800000213123544AD15401213023524AD15457E14F4B5B691A78012A02D100221A7011E001221A704A4B99690878042202430A7099690A78082082430A709A691378E9
:4004C00010218B431370424B99690A78022082430A700022D9690A701B6A1E321A70012130233D4AD1542CE1394B5B691A780B2A02D100221A7011E00B221A70344B9969E6
:400500000878042202430A7099690A78082082430A709A69137810218B4313702C4B2322D9690A701B6A37321A70012130232A4AD15406E1264B5B691B78042B06D1244B39
:400540001A6A1378772B01D80F331370204B5B691B78032B06D11E4B1A6A13783B2B01D80F3313701A4B5B691B78012B06D1184B1A6A13783B2B01D80F331370144B5B6991
:400580001B780B2B06D1124B1A6A1378772B01D80F3313700E4B5B691B780F2B06D10C4B1A6A1378952B01D80F331370084B5B691B780D2B06D1064B1A6A1378772B01D8D6
:4005C0000F33137001213023034AD154B9E0C0468C000020A0300000540100207F4B5B691B78042B06D17D4B1A6A13783C2B01D90F3B1370794B5B691B78032B06D1774BD1
:400600001A6A13780F2B01D90F3B1370734B5B691B78012B06D1714B1A6A13781E2B01D90F3B13706D4B5B691B780B2B06D16B4B1A6A13783C2B01D90F3B1370674B5B6992
:400640001B780F2B06D1654B1A6A13785A2B01D90F3B1370614B5B691B780D2B06D15F4B1A6A13783C2B01D90F3B1370012130235B4AD15465E0594B5B691B78DA1E012A70
:4006800001D90B2B5DD1554B9B691A78920704D51A7802218A431A7003E0197802220A431A70012130234E4AD1544AE04B4B5A691378002B05D00C2B03D00F2B01D00D2B4C
:4006C00036D132234649CB5C012B0DD0002B04D0022B18D0032B25D02FE0012032234049C854263B137028E0022132233C4AD1543A4B0022D9690A707832196A0A705B69A1
:40070000693A1A7019E003213223354AD154334B0022D9690A705A32196A0A705B694D3A1A700AE0002332212D484354137004E00023137032222A498B5401213023284AB6
:40074000D154002000F0B0FB002809D0244B012233215A54214909690220087030215A54022000F0A1FB002807D01C4B1B6903221A70012130231A4AD154032000F094FBA8
:40078000002807D0154B1B6904221A7001213023134AD154114B5B691B78002B18D10F4B99690A78042082430A7099690A78043082430A7099690A78083082430A709A69B2
:4007C000137802218B43137000213123044AD1540134E4B20B2C00D86BE510BD8C0000205401002008B53423244AD35C012B15D0002B02D0022B19D03EE033231F4AD35C19
:40080000002B39D0131C0021332299540131013299541B481B4900F001FA2DE0184800F007FA02213423154AD15425E0144800F0FFF9002803D001213423104AD154102026
:400840000E49383100F0E8F8002815D00B483E300D49FFF7DFFC00280AD0084B1A1C383291781976D1785976117999765279DA7601213423014AD15408BDC0465401002071
:4008800028030020B80B00008C00002008B5054950228B5A01338B5200F0B8F9012001F0A5FC08BD5401002008B5012000F090F901F0D6FC08BDC04610B562B600F0C8F90A
:4008C00002F026F9002001F0B7FC02F035F902F019F901F0D1FEBE214900081C314A01F03DFF01F073FC304801F0A2FE2F4802F015F900F073FB00F061FE00F06FF92C4BEF
:400900002C4A927F59680A70DA681B7A13705023284AD35A092B1DD900215023D152137F013313775231535A01339BB25352224A934203D9214952231E4AD15200F006FE87
:40094000002807D100F072FB00F0C6FC00F094F900F034FEFFF76EFC5223164AD25AC8239B009A4207D95423124AD35C002B02D000215423D154FFF799FCFFF733FF302364
:400980000C4AD35C002B0AD0141C00223023E2542034201CFFF708FC201CFFF705FC00F02DF9B4E7300300208D080000A90800008C0000205401002050C300001027000060
:4009C000402801D8012000E00020704708B5002000F0A6F8830601D5002000E0012008BD38B5041C0D1CFFF7EBFF002812D0002D10D0E02000F0A6F8201C291C00F0AEF85C
:400A0000A02000F09FF8D02000F09CF801F020FC0028FBD138BDC04638B5041C0D1CFFF7CFFF002820D0002D20D001F019FC02F083F802F067F8C02000F084F800F0C2F816
:400A4000002815D0002000F0C3F802F061F8FFF7BDFF00280ED0201C291C00F09BF8F02000F070F8012006E0002004E0002002E0002000E0002038BD38B5051C002415E0E6
:400A80006BB2002B03DA012001F0B6FB02E0002001F0B2FBC046012001F0C2FBC046002001F0BEFB6D00EDB20134E4B2072CE7D938BDC04638B5012001F09EFBC046002581
:400AC000002413E001F0A4FB002804D06D0001231D43EDB201E06D00EDB2012001F0A0FBC046002001F09CFB0134E4B2072CE9D9C046002001F080FB281C38BD38B5051CE2
:400B00000C1C002001F0B6FB281CFFF7B5FFC046201CFFF7B1FF012001F0ACFB38BDC04610B5041C002001F0A5FB40202043FFF7A3FFC046FFF7BEFF041C012001F09AFBD0
:400B4000201C10BD10B5041C002001F093FB201CFFF792FF012001F08DFB10BD70B5051C0E1C411EC9B20320FFF7C8FF002001F081FB0520FFF780FF002404E0305DFFF7E2
:400B80007BFF0134E4B2AC42F8D3012001F072FB70BDC046F8B5061C0F1C002001F06AFB4520FFF769FF002405E03D19FFF782FF28700134E4B2B442F7D3012001F05AFBF2
:400BC000F8BDC046014B18787047C046AC010020014B18707047C046AC010020002305E0054AD218002111700133DBB2052BF7D90022014B1A727047B00100207047C04693
:400C0000014B18887047C04624020020024A1388013313807047C0462402002038B5041C0D1CFFF7EDFF6080A5800023237038BD10B5041C0378002B08D1FFF7E1FF638827
:400C4000C01AA388984201DD01232370207810BD00230CE00748C25C01218A4301318A4304210A43F7210A40C2540133DBB20B2BF0D970472802002038B50024FBE00B2C63
:400C800000D99EE0A3007E4AD3589F46002000F007FB031C581E83417A4A105D01218843184310558DE0012000F0FAFA031C581E8341744A105D012188431843105580E016
:400CC000022000F0EDFA031C581E83416D4A105D012188431843105573E0032000F0E0FA031C581E8341674A105D012188431843105566E0042000F0D3FA031C581E8341ED
:400D0000604A105D012188431843105559E0052000F0C6FA031C581E83415A4A105D01218843184310554CE0062000F0B9FA031C581E8341534A105D0121884318431055C5
:400D40003FE0072000F0ACFA031C581E83414D4A105D012188431843105532E0082000F09FFA031C581E8341464A105D012188431843105525E0092000F092FA031C581E88
:400D80008341404A105D012188431843105518E00A2000F085FA031C581E8341394A105D01218843184310550BE00B2000F078FA031C581E8341334A105D01218843184341
:400DC0001055211C2F4B1A5DD307DB0FDBB29207D20F934222D02B4A125D5207D20F93420FD0284B1B191B7B952B05D8254A105D08230343135504E0224A105D2023034327
:400E000013552048435C01221A4052000225AB4313434354411801230B762AE0194A125D5207D20F934220D1164B1B191B7B962B16D9144A1219127E012A0CD1114A125DD2
:400E4000D20604D40F48055D10222A4302550D4A5218002010760B4A511801330B7308E0084A111901330B7303E0064B191900230B730134E4B20B2C00D800E738BDC04663
:400E8000D03000002802002010B5021C054B1B5C1B07D80F04D003498B5C0824A3438B5410BDC0462802002010B5021C054B1B5CDB06D80F04D003498B5C1024A3438B54AE
:400EC00010BDC0462802002008B502F0A9F803680C2B00D1FEE7FEE770B50F4E0F4D13E029686B68AC68002202E001C901C30432A242FAD1E868002202E0002102C3043218
:400F00008242FAD11035013E002EE9D102F08EF8FFF7D2FCFEE7C046010000001035000008B500230AE0032B03D89A000949505800E009489900094A885001331F2BF2D9A4
:400F4000FFF7ACF80022064B1A6080229205054B1A6008BD00000000C90E0000000000208000002008ED00E00B4B1B68002803D080221206134301E05B005B08064A136070
:400F8000064B1B68002802D02022134301E020229343024A13607047002002402800034008B51022024B1A600120FFF7DDFF08BDC0020B4008B5084B1B78002B06D100F07F
:400FC00037F900F07FF90122034B1A7000F052F800F0C2FC08BDC0464C02002038B5FFF7E9FF051E02D100F007FC051C002D02D100F0E4FA051C002D12D101F0AEFD041CAD
:4010000007E001F0CFFA201C01F0ABFD01F0A5FD041C00F09BFA0028F3D1201C01F0A1FD00F0CEF900F028FA281C38BD70B50F4E0024002515E06B0902339B000C4AD31804
:401040005A681F232B40DA40131CDB0707D5301C00F062F8041C281C311C00F0BDF8203601350B2DE7D9201C70BDC0460C3100003003002070B500230BE01348191D89003E
:4010800000220A509A1C920082180121494251600133002BF1D00D4C0C2310E06668227E094B5B1900211975012A06D12069002803D0F179E28A01F0E8FF20342B1C5D1EAD
:4010C000002BEBD170BDC046300300200C31000010B582B0041C131C428868460280228A081C694601F096FE6B461B8863806B469B7823716B46DB7863716B461B79A37142
:4011000002B010BD0B884A889B1A0022CA8002799A4200DACB807047F0B5574680B482B0824684684568037E0193C76900260023009316E02088298A3A1C01F097FE281CDC
:40114000391C321CFFF7C4FF0C37281C211C019A00F0A8F90090281C211CFFF7D3FF0A3401365346DB8AB342E4D8009802B004BC9246F0BDF0B5CA8A8D684F680B6901215C
:4011800025E00C1C044003D17E88BA79B21802E07A88BE79921BEE88B24201D3002200E00A1CA24202D01E78013E1E70A24202D01C78002C07D188431043002A01D1FA79C5
:4011C00000E001221A7049000A3501336246541EA446002AD5D1F0BD38B5041C0A7E134B1B181D7D012A04D1281CFFF7C3FF051C02E0002001F0B2F80C4B1B191D75630922
:401200001F2214401E3AA240141C002D06D1074904339B005A58A2435A5005E0034A04339B0099580C439C5038BDC0463003002038B5174C201C0021BE22520001F025FFD6
:40124000144B238098235B006380293BFF3B238401221A33E254201C24300F490C31D73201F00AFF0D490C1C0C340C230CE0A268E38A04E00B78537201310A32031C581EE1
:40128000002BF7D120342B1C5D1E002BEFD138BD3003002022A1FFFF80320000003100000B280BD81F220240012393401A1C430904339B0002495858104000E00020704768
:4012C000300300200023024A9380024A13607047300300201003002038B500250022344B9C88E4B2052C1AD8A3003249CB589F460122314B1A6012E000222F4B1A60013213
:401300000DE0FFF76BFE00222B4B1A600125013205E00222284B1A60013A00E00122002A0FD001F01AFC224B9B88DBB2A34205D11F4A918880231B020B43938001F011FC39
:4013400000221D4B1B68012BC9D0022B2ED1184A7333FF33D35CDBB27621FF31525CD2B20B2B23D8590115484118C98A91421DD90F48C188BB246400005B89B2814215D002
:401380005B010E49CB189C6893009A185200A41801F0E3FB064BDA8892B2BB2149005A52228892B202315A5201F0DBFB281C38BD30030020B4340000100300200C31000031
:4013C000F8B50C231AE06B010E4AD3185E68DB8A10E06B010B4AD3189F68A00000194000DA6961000B199B00D218385A318A01F031FD231C5C1E002BEBD12B1C5D1E002B5B
:40140000E1D1F8BD0C310000C9B2062902D08318002119715300195AC3185980821800231372704770B54001094B18188B005918490083685C18067E012305E0201C311C2F
:401440002A1CFFF7E1FF2B1C5D1E002BF6D170BD0C31000038B5051C4301064AD318DB8A04E0281C211CFFF7DDFF231C5C1E002BF7D138BD0C31000010B50C2303E0201C18
:40148000FFF7E8FF231C5C1E002BF8D110BDC0469840031C534380204000801A41435818000A7047F0B583B0071C0E1C019201233BE06300985BF3185988884205D3431ADB
:4014C000321900251572012201E00B1A0022002A11D17D799D420ED233191B7A3A7A934205D3301C0199221CFFF78EFF1CE032190133137218E03D799D4204D27D799D42C8
:4015000012D9002A10D16B461B79062B0CD0090235192B79194301220823FFF7B9FF020A6300F3185A802871231C5C1E002BC0D1002003B0F0BDC046024A1168024B0B40C9
:401540001360704700020B40FFFFF8FD024B9B68802018407047C0463003002010B50F4B9B68DB030FD40B280FD8430902339B000A4AD3185A681F230340DA40131CDB07DF
:4015800005D4012404E0112402E0012400E00024002C01D100F06EFC201C10BD3003002008B5054B9B68DB0303D400F0E9FB002000E0112008BDC0463003002010B50F4B4E
:4015C0009B681B0618D400240120404211E0201CFFF7C4FF00280BD10A2C03D80122084B1A7002E00022064B1A70FFF7D9FF04E001340B2CEBD900E0112010BD3003002027
:401600001403002010B5174A53780133DBB253705078C0B2FFF7A2FF041E09D1114B5B780B2B02D100220F4B1A70FFF7B9FF15E00C4B5B780B2B0AD10B4A75339168994343
:401640000B021B0A040623439360002406E006498B681B021B0A020613438B60002CD2D110BDC0461403002030030020074A084B1A6001380002074B1860054B1B68002BB1
:40168000FBDB054A024B1A607047C04640000040000001400003014040FF0080034A13681B0B1B03013818431060704700020B4070B5002512E06B010A4A9E58002406E0AD
:4016C000E000001B8000301800F0A2FB01346B01044AD3189B7DA342F2D801350B2DEAD970BDC0460C3100004001024B18184368D87A70470C3100000203121A01238B4089
:40170000191C01398A4205D30302181A814203D9052002E0062000E00020C0B27047C04670B50E1CFFF7E0FF051C3188002200F027FA041C9F2D08D9FF235B00984204D932
:401740002C4901F061FC00291FD09F2D07D9FE2C05D9201CFF2101F057FC002917D09F2D07D97E2C05D9201C7F2101F04DFC00290FD09F2D0FD93E2C0FD9201C3F2101F045
:4017800043FC00290BD000240AE0042408E0032406E0022404E0002402E0002400E00124002C04D13188281CFFF7A6FF041C631EDBB2032B01D8102000E00020002C10D078
:4017C000002810D064235843291C01F097FB002301E0013340000928FBD90A2804D9013B02E0002300E00023DBB21B012343337370BDC046FF010000F0B5474680B488B0A1
:4018000001ACFA239B002380424B638096235B01A3803C23E3731A3B3F4AD15C3F4801F06DFBA08100223E4B9A70FFF785FE002398460025002730E06B013A4AD3185C680D
:401840000C23238001AEB089374901F057FBE072281C3C2100F0F0FB231C0A33336101337361301C01F068FA8046304B984200D9062701AB9B892E4A934205D8E37A012BC2
:401880000AD80223E37207E02A4A934204D8E37A072B01D80823E37201350B2DCCD901221F4B9A70013201AB9A7300252AE06B011C4AD3185C68231C0A3301AE059301339B
:4018C000069343460393E389F380231C10330793281C211CFFF724FF281C3C2100F0ACFB0743301C01F05CFA2080281C211CFFF717FF237B002B04D1281C3C2100F09CFB93
:40190000074301350B2DD2D9381C08B004BC9046F0BDC046E507000030030020E02E0000140300200C310000DC050000870D0100C05D000080BB000010B5002407E063012C
:40194000044AD3185968201CFFF7EAFE01340B2CF5D910BD0C31000008B5FFF7EDFF00F05DF8002008BDC046034970230A689A43503B13430B607047B8000020034A044B9B
:401980001A60C1225204034B1A60704700008301C0010B40C4010B40064A136806490B431360064A064B1A60C1225204054B1A607047C046A8020B40010000100000830115
:4019C000C0010B40C4010B4070B50D1C161C04880123A3401C1C013CA00000194000642101F08CFA01302B18A34200D9231C854201D3281A00E00020864203D39E4203D9A6
:401A0000062002E0062000E0002070BD01390843014B18607047C04600020B4010B5FFF747FE0024294B1C60294B1C601022294B1A60294B1C60294B1C60294B1C60294B90
:401A40001C60294A1460294B1C6029490868294B0340C020C00003430B6027490B688020400103430B600121244B196024490B68244803430B6080235B0423490B60234869
:401A8000234908601360234A234B1A60FFF776FF2223224AD05CFFF7E9FDFFF765FF204B1B68204A1343204A1360242001F04CF80F221E4B1A601E4B1C60053A1D4B1A60EE
:401AC000C02212031C4B1A6010BDC046F4000B40B4020B40C0020B4020030B4084010B4088020B4080020B4084020B4080010B4000040240FFF0FFFF94020B40A0020B4070
:401B0000A8020B4001000010A4020B404112000088010B400000030190020B4030030020B80000200010008000000B4000030B40F0010B4010030B4004020B4038B5041C5A
:401B400001F00BF80A490B687F25AB43094A1278A418A47A23430B6007490B68AB43074C2468A218527A13430B6000F0FAFF38BDC0010B40CC340000C4010B40B0040020EC
:401B800038B5051C141C01238B40181C0138002D02D0291C01F0B2F9074B1B78012B09D12133064AD35C5D43053C012C02D8A02D00D8800838BDC046160300203003002051
:401BC00008B50E4B1B785B010D4AD3185B68D97A187B431F012B04D8000480239B04184300E00004074B1B78012B02D1FFF70EFF02E0081CFFF752FD08BDC04615030020D1
:401C00000C3100001603002008B5031CC07A19881A7BFFF7B5FF0004000C014B186008BD14030B4010B50A2000F084FB0124314B1C600C2000F088FF2F4A304B1A6000228F
:401C40002F4B1A6006322F4B1A602F4B1C60802252042E4B1A602E4B1C60832252002D4B1A60033AFF3A2C4B1A60013A2B4B1A60F02300E0013B274A1268520701D4002B80
:401C8000F8D1002B02D10822244B1A6000241B4B1C601B4B1C60832252001E4B1A600A2000F052FB0A2000F03BFB164B1C60164B1C60164B1C605022154B1A604F3A184B02
:401CC0001A600C4B1C60174A1368802149040B4313600222104B1A60F02300E0013B124A1268520701D0002BF8D1104A0B4B1A6010BDC04680010B4001010100B0020B4027
:401D0000B4020B4088020B4080020B4084020B40F0010B40F0000B40F8000B4040030B408C010B4000020B4000000B400103000008B5044A044B91680B439360FFF772FF78
:401D400008BDC046300300208000010070B5041C857E067E00F001FF23681B680F22B24093431A1C0423B3401343666832680721A9408A4332602268136000F0F2FE70BD79
:401D800070B5144E3378144D5B01EB185868134C0023237033785B01EB189968227893009B185B00CB180E4A1360FFF7C7FE33785B0158592178CA00531A9B00C018094B5E
:401DC0001860FFF7C3FF084800F088FAFFF7B0FF70BDC046150300200C31000017030020B0040020AC040020DD2B000008B54001054BC058CB00591A89004018034B186073
:401E0000FFF7A4FF08BDC0460C310000AC04002038B5041C007EA57E21680B680F22824093430B6000F099FE61680B680722AA4093431A1C0623AB4013430B6000F091FE1D
:401E4000A1680B68607E0122824093430B6038BD08B5064B1B78012B06D1054B1868FFF7D7FF0022014B1A7008BDC04618030020AC04002070B5041C0E4E4301F3185D682A
:401E8000FFF7E6FFE4B20C490C700B785B019A590A4B1A600A4A7F2390689843031C906009780B439360281CFFF7AEFEFFF788FE70BDC0460C31000015030020AC040020CB
:401EC0003003002038B54301124AD3185D68C9B2114C21709968227893009B185B00CB180E4A1360FFF7C6FF281CFFF727FE20780B4AC300181A800013689C466044106012
:401F0000FFF724FF0122074B1A70074800F0E6F938BDC0460C31000017030020B0040020AC04002018030020692B0000074B1A687F210A40064802431A60064A13680B40A5
:401F4000802109040B4313607047C046C0010B4000008301C4010B40F0B5474680B482B0071C0E1C90462C4A13785B012B49CB185B680193402333701078C0B2284B1978CB
:401F8000C9B2FFF79FFFFFF7D1FF4025FFF7D0FE244A00E0013A244B1B7A5BB2002B01DA002AF7D1214B1B681C88BC4202D23378AB4333706D0833782B4333700198FFF730
:401FC000BDFD002DE2D1144B1B785B01134A9858134B1978CA00531A9B00C018144B1860FFF716FF0022134B1A70FFF7D5FC0198391C221CFFF7E8FC43461A7833789A42B8
:4020000001D242461370094B1B6832785A7202B004BC9046F0BDC046150300200C310000170300203333000030030020B0040020AC04002018030020F0B54F4680B484B091
:40204000051C89464301354AD3185F68012303AA137038888340181C01384843642100F04DFF0190EAB22E4B1A702E4800F036F93C1C0A3400222C4B1A7000260AE0019844
:40208000211C03AAFFF768FF0643274A13780133DBB213706B01214AD318234A12785B7E9342ECD803AB1B7801335B08BB7200221D4B1A7021E06B01184AD3189A681A4BEB
:4020C0001B789C00E41864001419184B1C60637AB87A83420AD31B1AD8B260724B4658436330642100F00AFF607201E0002363720D4A13780133DBB213706B01074AD3184D
:40210000094A12785B7E9342D5D80022064B1A70301C04B004BC9146F0BDC0460C31000015030020692B000017030020B00400200004000C014B18607047C0460801064029
:402140000004000C014B18607047C0461401064038B5041C0D1C00F000FDAC40024B1C6000F0FFFC38BDC0460800064008B500F0F4FC064A116801230B43136000F0F1FC3F
:4021800001201821FFF7E4FF08BDC04600000640014B18607047C0463801064008B580229204084B1A600C22074B1A600120FFF7EFFFFA200001FFF7C3FF0020FFF7B8FF7A
:4021C00008BDC046000106402401064008B5064B1B78002B04D1FFF7E1FF0122024B1A70FFF7C4FF08BDC04619030020014B18607047C0463001064004490A68F7231A4006
:40220000C000EF3B184010430860704700010440024B18680007C00F7047C0460401044004490A68FB231A408000F73B184010430860704700010440044A11687F230B4050
:40224000C001C0B2184310607047C04600010440024B18680006C00F7047C04604010440034A1068802318401060C009C0B2704710010440031C04490868FE2202400120E0
:40228000184010430860704700020440014B98667047C0460000002010B5041C00F05DFC044A1168044B0B40A4051C43146000F058FC10BD08E400E0FFFF3FFF8022D2004F
:4022C000014B1A607047C04600E100E08022D200014B1A607047C04680E100E010B5041CFFF7F4FF201CFFF7D1FF0320FFF7D4FFFFF7E4FF10BDC046024A1168024B0B409D
:402300001360704700000740FFFFFFBF034B18688023DB05184000D001207047000007401F2318401E3B8340181C014B1860704700E100E01F2318401E3B8340181C014B7C
:402340001860704780E100E01F2318401E3B8340181C014B1860704780E200E001BE704738B5041C0D1C0F2802D90020FFF7F6FFA400034B9C4664442068256038BDC046F9
:402380004000002070B5041C0E1E032E02D90020FFF7E4FF0F2C02D90020FFF7DFFF03252540ED00063500F0D8FBA408A400074B9C46644423680322AA409343AE40351CEA
:4023C0001D43256000F0CDFB70BDC04600E400E010B5041C06E0084B586800F0B5FB074B9C46644480231B029C42F4D8024B9868604300F0A9FB10BDBC0000200080FFFFDA
:4024000030B583B000F0DCF8002848D000F0A5FB041C244B1B6807221A409200131C1833214A12681207920FD3401A1C1F4B19681F4B19401F4B53438020C00184466344E7
:40244000DB0B013B5B055B0D0B43A02149031943192A02D8184A13430BE0184BD31818781A3A174B9B5CC318FF2B00D9FF239B050B430E4A1360134D2B680193302000F0F0
:4024800031FC114A13688021C9050B4313601420FFF79EFF019B2B60201C00F062FB03B030BDC046080F0340280003400800074000F800C040420F000000D43FCDF1FF0F90
:4024C000D03400003000104000000740F0B583B0041E182C0BD01C2809D0202807D0242805D0282803D02C2801D0302849D100F034FB0190FFF70AFF002803D0FFF7FCFE47
:40250000012600E00026214A136807218B4313601F4BE3181B78DBB21E4A13601E4A13688B4313601D4803687F229343191C1C4BE3181B7813400B430360322000F004FBE5
:40254000182C16D9114F3B680725AB431A1C231C1C3B9B082B4013433B60322000F0F4FA3A68AA43231C183B9B082C1C1C4014433C60012E01D1FFF743FF019800F0F1FA08
:4025800002E00020FFF7EAFE03B0F0BD080F0340CDF1FF0F0C0F0340100F0340180F0340B4F1FF0F08B500F0D8FA044A136804218B43136030BF00F0D4FA08BD10ED00E0DB
:4025C000034B1B68002B01DA012000E00020704700000740014A024B1A6070476588EDAC38000340014BD8667047C0460000002010B5041C00F0B1FA044A13689B009B082D
:40260000A4071C43146000F0ACFA10BD08E400E080221201014B1A607047C04600E100E080221201014B1A607047C04680E100E010B5041CFFF7F4FF201CFFF7D3FF032086
:40264000FFF7D6FFFFF7E4FF10BDC04608B50720FFF766FE08BDC04608B500F01DF808BD08B5044A1368802109060B431360FFF7EDFF08BD0000084008B5064B1B78002BA1
:4026800004D1FFF7E9FF0122024B1A70FFF7E8FF08BDC0461C03002010B500241A4B1C601A4A1B4B1A601B4B1B4A13601B4A14601B491C4A11601C4A13601C4B1C60072043
:4026C000FFF738FE07200321FFF75CFE07201849FFF746FE174B1C60174B1C605222FF32164B1A60164B1C60164B1C60164B1C60503AFF3A154B1A70154B1C70154B1C80E9
:40270000154B1C8010BDC0460000084000080040600008400701008000030840040308401000FE001003084000020840040208408D270000C80E0840880E0840480F084020
:40274000080F0840C80F0840880F0840B8040020BC040020B6040020B404002070B5061C0D1C141E0BD00720FFF7E4FD044B1C60044B1E80044B1D800720FFF7D1FD70BD57
:40278000C0040020C4040020BA04002070B5B24B1B68002B00D09847B04B1C88B04B1D68B04B1E680223FF331D4236D0AE4A13685B005B081360AD4B1A7820218A431A70CE
:4027C000197810220A431A70A94B1B68DB060BD4A24B1A88A74B1B889A420AD0A34A117808230B43137004E0A04A117802230B431370A14A1168A14B0B4013600023A04A54
:4028000013609B4A136002229E4B1A70964A1368802109060B4313601AE1F30602D50022994B1A600A23334200D1A3E0974B1B685B0769D5964B1A68924B1B78012B04D051
:40284000002B22D0022B16D057E0924B1B88002B0DD00121904B1960904B1B681B19D2B21A7001348B4A1388013B138048E00222894B1A6044E00121874B1960D2B2854B60
:402880001A8000227F4B1A703AE0824B1B881B021A43834B1B8893422BD901217E4B1960804B1B88934202D99B1A9BB200E0002378490B80072B03D80121724B197014E07E
:4028C000082B09D16C490B68A020000203430B6000216B4B196008E067490B688020800103430B600821664B1960624B1A80141C06E00222684B1A6002E00020FFF72EFDDF
:402900000422694B1A6035E05B4B1B689B0431D5B3070DD5654B1B681F211940564A1068564B03401360012014E00821012011E0584B1988083989B219800829F5D80020C2
:4029400008E0564B1B681B19514A1268D2B21A70013401390029F4D1002808D1464A1368802109020B4313600022454B1A600C224D4B1A60B3074AD5EB0615D50023404A51
:4029800013603B4A13603B4B1B88A34201D1022300E00A232B40354A11780B4320218B4313700222374B1A706B062ED52F4A117820230B4313702F4B1B881C1C3C4A126838
:4029C000D20612D5364A1288D31A324A1380394B1A68802149020A431A601968364A0A401A601022224B1A6002E00422244B1A600122324B1A603249194B1960314908681E
:402A0000102303430B60244B1A60154B1D60154B1B685B071CD51F4B1B88002B0CD01F4B1B681B191B78DBB2274A13600134194A1388013B138002E0FF22234B1A60234B22
:402A40001B681F221340082BE5D10F3A204B1A60024B1C8070BDC04620030020B6040020400F0840000E084000000840BC040020880F0840B404002060000840FF5FFFFF1F
:402A8000C80F0840B8040020880E0840CC0F084040030840240300206C000840C0040020C4040020BA040020C00F0840080308406400084004020840FFFFFEFF800E0840B5
:402AC000FF0F0000480F08404002084008020840800F0840014B58647047C0460000002010B5041C00F039F8044A1168044B0B40A4031C43146000F034F810BD00E400E003
:402B0000FF3FFFFF0222014B1A60704700E100E00222014B1A60704780E100E010B5041CFFF7F6FF201CFFF7D5FF0320FFF7D8FFFFF7E8FF10BDC0460222014B1A607047FE
:402B400080E200E0000000000230800803D001300238FCD1C046C0467047EFF3108072B6704780F31088704783225200134B1A60134B1B785B01134AD3185B68124A12687B
:402B80001204120C198801238B40013B9A4206D20E4B19680E4B1B785B00CA5205E00B4A11680B4A127852008B520A4BDA880132DA80094A99680A409A607047F0000B4095
:402BC000150300200C310000D0000B40B0040020CC340000300300207FFFFEFF38B5374B1A78374C52011059364A1578E9004A1B9200801883214900334A11601B785B0114
:402C0000E3185B68314A12681204120C198801238B40013B9A4206D22D4B19682D4B1B785B00CA5205E02A4A11682A4A127852008B52FFF7EDF8214B1A78214952018A187B
:402C400050681B785B01CB189B7D1E4A1278013B93421BD91B4C23780133DBB22370174D2B785B01CB189968227893009B185B00CB18174A1360FEF761FF2878C0B221782C
:402C8000C9B2FFF7B3F8FEF7CDFF15E000220D4B1A70114A114B91680B409360104A1278012A02D1FEF7AEFC06E00B4A80218B439360D3880133D38038BDC046150300201D
:402CC0000C31000017030020F0000B40D0000B40B0040020CC34000030030020FFFFFEFF1403002038B5041CFFF737FF051C102C05D8104A136803218B43136016E0202CBF
:402D000007D80C490B6803229343023A13430B600CE0302C07D807490B6803229343013A13430B6002E00020FFF718FB281CFFF718FF38BD3000104070B5041CFA26036971
:402D400080881D78E37BB60058431349704300F0D5F875436188684300F0D0F8051C2088311C684300F0CAF8A3890C49584300F0C5F8013063691022082809D80822042865
:402D800006D80422022803D801D1187001E001221A70281C70BDC046F049020000E1F50538B5041C63698089197800F0A7F8051C60880304181A23691978A388594300F07D
:402DC0009DF8A37B1149DD40684300F097F8E3880A21584300F092F800230D4AA16810258A425B410222D31A62325343984203D9013DEDB24008F9E74B236421584300F040
:402E00007DF8A4692080281C38BDC046A0860100A761000010B50024A34200D00C880088131C800080B2824200D2031C9AB2A24200D2231C9AB20B805308FF2B01D9FF2319
:402E400000E0DBB28B70CB70D308FF2B00D9FF230B7110BD8B0813800F2393720023C90851809080D0801081D3727047937A30B594885B00041B9080DBB2002C01DB937225
:402E800002E00133937264420F23957A1D40538895729C4203D2012B03D9013B00E0013353800F2D05D0002D03D053889D00AC4204D90023D0801081D3721DE0D488844237
:402EC00001D9D08003E01489844200D21081D07A092802D80130D0720EE01089D488001B80B2834204D989088B4203D9013B00E0013353805388138030BD00000022430840
:402F00008B4274D303098B425FD3030A8B4244D3030B8B4228D3030C8B420DD3FF22090212BA030C8B4202D31212090265D0030B8B4219D300E0090AC30B8B4201D3CB03EB
:402F4000C01A5241830B8B4201D38B03C01A5241430B8B4201D34B03C01A5241030B8B4201D30B03C01A5241C30A8B4201D3CB02C01A5241830A8B4201D38B02C01A524116
:402F8000430A8B4201D34B02C01A5241030A8B4201D30B02C01A5241CDD2C3098B4201D3CB01C01A524183098B4201D38B01C01A524143098B4201D34B01C01A5241030924
:402FC0008B4201D30B01C01A5241C3088B4201D3CB00C01A524183088B4201D38B00C01A524143088B4201D34B00C01A5241411A00D20146524110467047FFE701B500207B
:4030000000F00CF802BDC0460029F7D003B5FFF775FF0EBC4243891A1847C0467047C046014B18687047C046300100200E4B70B500251E1C0D4CE41AA410A54204D0AB0089
:40304000F35898470135F8E700F050FA084B00251E1C084CE41AA410A54204D0AB00F35898470135F8E770BDF8340000F8340000F834000000350000002310B5934203D004
:40308000CC5CC4540133F9E710BD031C8218934202D019700133FAE77047000000000000D4020000F00200003C03000076030000B0030000FC03000092040000E804000086
:4030C00034050000DC05000076060000AC0600008C0C0000A60C0000C00C0000DA0C0000F40C00000E0D0000280D0000420D00005C0D0000760D0000900D0000AA0D0000AD
:4031000020202020202020202020202064330000540300202C040020000000000C0300200100010001010000D40200208033000066030020360400200000000008030020C7
:403140000100010001010000C80200209C330000780300204004002000000000040300200100010001010000BC020020B83300008A0300204A040020000000000003002061
:403180000100010001010000B0020020D43300009C0300205404002000000000FC0200200100010001010000A4020020F0330000AE0300205E04002000000000F802002083
:4031C0000100010001010000980200200C340000C00300206804002000000000F402002001000100010100008C02002028340000D20300207204002000000000F0020020A1
:4032000001000100010100008002002044340000E40300207C04002000000000EC02002001000100010100007402002060340000F60300208604002000000000E8020020C0
:403240000100010001010000680200207C340000080400209004002000000000E402002001000100010100005C020020983400001A0400209A04002000000000E0020020DE
:403280000100010001010000500200200C00640028280A031E6420040000A00000000C00640028280A031E6420040000A00000000C00640028280A031E6420040000A0005F
:4032C00000000C00640028280A031E6420040000A00000000C00640028280A031E6420040000A00000000C00640028280A031E6420040000A00000000C00640028280A03C8
:403300001E6420040000A00000000C00640028280A031E6420040000A00000000C00640028280A031E6420040000A00000000C00640028280A031E6420040000A00000000E
:403340000C00640028280A031E6420040000A00000000C00640028280A031E6420040000A0000000000002400800044000000440040004400F0000000100000000000000FD
:4033800000000240080004400000044004000440F0000000020000000401030000000240080004400000044004000440000F0000040000000802060000000240080004402E
:4033C000000004400400044000F00000080000000C030900000402400804044000040440040404400F000000010000000000000000030240080304400003044004030440D1
:40340000F0000000020000000401030000020240080204400002044004020440000F000004000000080206000002024008020440000204400402044000F000000800000033
:403440000C030900000202400802044000020440040204400000F0002000000014050F00000202400802044000020440040204400000000F400000001806120000020240F5
:40348000080204400002044004020440000000F0800000001C071500000302400803044000030440040304400F00000001000000000000001E130000F0120000F812000013
:4034C00002130000121300001C13000000000000EEDBC9B9AA9B8E82766B60564D443B332C241D17100A040043000000F8B5C046F8BC08BC9E46704771010000210F0000E0
:40350000F8B5C046F8BC08BC9E467047490100002035000088000020B00000009003000000000000010203047A0100200C000000790100207401002076010020750100202E
:40354000770100207801002023235A785A1E1E5A020000040100000000007017E02E00000C000000001BB70000000000000000000000000000000000000000000000000098
:403580000000000000000000E834000000000000000000000000000000000000000000000000000000000000000000000000000000000000000000000000000000000000EF
:4035C0000000000000000000D000002000000000000000000000000000000000000000000000000000000000000000000000000000000000000000000000000000000000DB
:40360000000000000000000000000000000000000000000000000000000000000000000000000000000000000000000000000000000000000000000000000000000000008A
:40364000000000000000000000000000000000000000000000000000000000000000000000000000000000000000000000000000000000000000000000000000000000004A
:40368000000000000000000000000000000000000000000000000000000000000000000000000000000000000000000000000000000000000000000000000000000000000A
:4036C00000000000000000000000000000000000000000000000000000000000000000000000000000000000000000000000000000000000000000000000000000000000CA
:0200000490303A
:020000004904B1
:0200000490402A
:1000000000000000000000000000000000000000F0
:0200000490501A
:0C0000000002190911A9000119195AADDC
:0200000490600A
:0100000001FE
:00000001FF