:400000000008002011000000ED0A0000ED0A000008B501F0FBFF00F071FDC04610B50F4C12232360182001F06DFF802292000C4B1A600C4B0C4A1A60FE2109020B4A116004
:400040000B4A1A6004220B4B1A603D320A4B1A60013A0A4B1A600023236010BD30001040040301400000014041FF00800003014040FF0080280003400C0101400801014031
:4000800008B572B6EE221202134B1A600E22134B1A600132124B1A602732124B1A60EC23114A13603021114A1160114A1360E93B104A1360D82109010F4A11600F4A1360CB
:4000C00001220F4B1A6004320E4B1A60FFF7A6FF00F078FD08BDC046000302400000044018000440080104400002044008020440180204400003044008030440180304401C
:40010000000404401804044010B5064C2378002B07D1054B002B02D0044800E000BF0123237010BD38010020000000003426000008B5084B002B03D00748084900E000BFA6
:4001400007480368002B00D108BD064B002BFBD09847F9E700000000342600003C010020880000200000000008B500F077F900F01FF9012001F0D8FD08BDC04608B562B6F3
:4001800000F040FB00F02AF800F036F900F052FA01F0BAFD0E4801F07BFF00F031FD00F0ABFF0C480A2100F061F90B48012100F05DF901F03BFF00F067FF002805D100F093
:4001C00047FD00F023F900F097FF00F01FF9F0E7690100004D080000FD010000002305E0054AD218002111700133DBB2052BF7D90022014B1A7270475401002070B5584BFB
:400200001B7A012B12D0002B04D0022B32D0032B53D0A3E0524B9B7A002B00D19EE0504B00229A72012119725A7297E04C4B5B7A012B0FD0002B02D0022B15D08EE001201F
:4002400001F034FF464C201C052100F0B9F80123637283E0424800F0BDF8002800D17DE002223F4B5A7279E03D4B02221A7200225A7273E03A4B5B7A012B0FD0002B02D036
:40028000022B14D06AE0002001F010FF344C201C052100F095F8012363725FE0304800F099F800285AD002222D4B5A7256E02C4B03221A7200225A7250E0294B5B7A012B88
:4002C00040D0002B02D0022B45D047E00122244B5A7243E0224B9B191D7B00242DE0EB0703D5012001F0EEFE02E0002001F0EAFE012001F0DBFE002302E0C0460133DBB2C3
:40030000632BFAD9002302E0C0460133DBB2632BFAD96D08002001F0C9FE002302E0C0460133DBB2632BFAD9002302E0C0460133DBB2632BFAD90134E4B2072CCFD90136AB
:40034000F6B200E00026064B5B7BB342C2D80222034B5A7202E00022014B1A7270BDC0465401002010B50E4B1B7A002B15D10C4B5A221A730239C9B25973002306E0C218CE
:400380009478074AD21894730133DBB28B42F6D30122034B9A72012000E0002010BDC04654010020014B18887047C0466C010020024A1388013313807047C0466C01002084
:4003C00038B5041C0D1CFFF7EDFF6080A5800023237038BD10B5041C0378002B09D1FFF7E1FF6388C01A80B2A388834201D201232370207810BDC04608B503480021A8222B
:4004000002F00FF908BDC0467001002010B5124BA2229A5AA4215B5A9A421CD0A4230E49CA52002412E00C4AA223D15AE300D218D388CB1A9BB292889A4205D8064BE20054
:400440009818C180D35898470134E4B2A023024AD35CA342E7D810BD700100200249A2228B5A01338B5270477001002010B5002810D0002910D0A023094AD35C122B0DD8EC
:40048000141CDA001051A21891800133A022A354012004E0002002E0002000E0002010BD7001002008B503480023C3700321FFF759FF08BD9C03002008B503480123C370E1
:4004C0000321FFF74FFF08BD9C03002008B503480223C3700321FFF745FF08BD9C03002008B503480323C3700321FFF73BFF08BD9C03002008B503480423C3700321FFF719
:4005000031FF08BD9C03002008B503480523C3700321FFF727FF08BD9C03002008B503480623C3700321FFF71DFF08BD9C03002008B503480723C3700321FFF713FF08BD6C
:400540009C03002008B503480823C3700321FFF709FF08BD9C03002008B503480923C3700321FFF7FFFE08BD9C03002008B503480A23C3700321FFF7F5FE08BD9C030020B5
:4005800008B503480B23C3700321FFF7EBFE08BD9C03002008B503480C23C3700321FFF7E1FE08BD9C03002008B503480D23C3700321FFF7D7FE08BD9C03002008B503487E
:4005C0000E23C3700321FFF7CDFE08BD9C03002008B503480F23C3700321FFF7C3FE08BD9C03002008B503481023C3700321FFF7B9FE08BD9C03002008B503481123C37030
:400600000321FFF7AFFE08BD9C03002008B503481223C3700321FFF7A5FE08BD9C03002008B503481323C3700321FFF79BFE08BD9C03002008B500200021314A00F0A6F90E
:40064000012000212F4A00F0A1F9022000212E4A00F09CF9032000212C4A00F097F9042000212B4A00F092F905200021294A00F08DF906200021284A00F088F907200021E5
:40068000264A00F083F908200021254A00F07EF909200021234A00F079F90A200021224A00F074F90B200021204A00F06FF9022001211F4A00F06AF9082001211D4A00F063
:4006C00065F9092001211C4A00F060F9082002211A4A00F05BF909200221194A00F056F902200821174A00F063F903200921164A00F05EF909200021144A00F059F908BD26
:40070000A5040000B9040000CD040000E1040000F5040000090500001D0500003105000045050000590500006D0500008105000095050000A9050000BD050000D1050000BE
:40074000E5050000F90500000D0600002106000008B50B280AD8032908D84300181840188000034BC358002B00D0984708BDC0461802002070B5884224D00D1C814200D93E
:40078000051CEDB20E1C814200D2061CF6B2002413E0E3000C49CB18596900290BD0E3000948C3181B7CAB4205D1E2008218537CB34200D188470134E4B22823024AD35C1E
:4007C0009C42E6D370BDC0469802002010B5002400230EE00A4AD25C013A012A07D80134E4B2012C00D1181C022C00D1191C0133DBB20B2BEED9022C01D1FFF7BBFF10BD48
:40080000A803002038B50E480021602201F009FF002311E099000B4A8858094AD900541860608D5C04202843885400226280064A0021D1540133DBB20B2BEBD938BDC04630
:40084000B40300208C000020A8030020F8B500258FE02C1C494EEF00F3195B6898470123184003405B00BA5D02218A431343BB55DB07DB0FDBB298426DD1404BDA1953881C
:4008800001339BB25380032B71D93D4A525D012A15D0002A04D0022A2FD0032A46D066E0EB00364A9B5C9A07D20F5B07DB0F9A425DD10122324B5A55FFF788FF57E0EA004D
:4008C0002E49525C9107C90F5207D20F914207D000222B4B5A55281C0021FFF739FF46E096225200934242D92B3AFF3A244B5A55281C0121FFF72CFF39E0EA001F49525C29
:400900009107C90F5207D20F914207D000221C4B5A55281C0221FFF71BFF28E0FA229200934224D90322164B5A5520E0EA001349525C9107C90F5207D20F914202D0002193
:400940000F4A51550F4A934211D9E4000B4B1C190D4B63800BE00949E8000B1800225A80435C9A07D20F0124A343134343540135EDB20B2D00D86CE7F8BDC046B40300208F
:40098000A803002050C30000983A00000B2809D8032909D84300181840188000034BC250012002E0002000E0002070471802002070B52823104CE35C022B17D8884217D0CF
:4009C000002A17D00C1C814200D9041CE4B20D1C814200D2051C0848D90041180C744D744A61013328228354012004E0002002E0002000E0002070BD9802002008B50B20D4
:400A000000F060FA002801D0012000E0002008BD08B50A2000F056FA002801D0012000E0002008BD08B5092000F04CFA002801D0012000E0002008BD08B5082000F042FA7B
:400A4000002801D0012000E0002008BD08B5072000F038FA002801D0012000E0002008BD08B5062000F02EFA002801D0012000E0002008BD08B5052000F024FA002801D0EF
:400A8000012000E0002008BD08B5042000F01AFA002801D0012000E0002008BD08B5032000F010FA002801D0012000E0002008BD08B5022000F006FA002801D0012000E00A
:400AC000002008BD08B5012000F0FCF9002801D0012000E0002008BD08B5002000F0F2F9002801D0012000E0002008BD08B501F063FD03680C2B00D1FEE7FEE770B50F4E0B
:400B00000F4D13E029686B68AC68002202E001C901C30432A242FAD1E868002202E0002102C304328242FAD11035013E002EE9D101F048FDFFF722FBFEE7C04601000000D7
:400B4000302A000008B500230AE0032B03D89A000949505800E009489900094A885001331F2BF2D9FFF78CFA0022064B1A6080229205054B1A6008BD00000000ED0A00004E
:400B8000000000208000002008ED00E00B4B1B68002803D080221206134301E05B005B08064A1360064B1B68002802D02022134301E020229343024A136070470020024023
:400BC0002800034008B51022024B1A600120FFF7DDFF08BDC0020B4008B5084B1B78002B06D100F037F900F07FF90122034B1A7000F052F800F04EFC08BDC046C4020020C2
:400C000038B5FFF7E9FF051E02D100F093FB051C002D02D100F070FA051C002D12D101F068FA041C07E001F0D9F9201C01F065FA01F05FFA041C00F027FA0028F3D1201C7D
:400C400001F05BFA00F05AF900F0B4F9281C38BD70B50F4E0024002515E06B0902339B000C4AD3185A681F232B40DA40131CDB0707D5301C00F062F8041C281C311C00F023
:400C8000BDF8203601350B2DE7D9201C70BDC046442600001404002070B500230BE01348191D890000220A509A1C920082180121494251600133002BF1D00D4C0C2310E049
:400CC0006668227E094B5B1900211975012A06D12069002803D0F179E28A01F0A2FC20342B1C5D1E002BEBD170BDC046140400204426000010B582B0041C131C4288684694
:400D00000280228A081C694601F050FB6B461B8863806B469B7823716B46DB7863716B461B79A37102B010BD0B884A889B1A0022CA8002799A4200DACB807047F0B557463C
:400D400080B482B0824684684568037E0193C76900260023009316E02088298A3A1C01F051FB281C391C321CFFF7C4FF0C37281C211C019A00F034F90090281C211CFFF784
:400D8000D3FF0A3401365346DB8AB342E4D8009802B004BC9246F0BDF0B5CA8A8D684F680B69012125E00C1C044003D17E88BA79B21802E07A88BE79921BEE88B24201D325
:400DC000002200E00A1CA24202D01E78013E1E70A24202D01C78002C07D188431043002A01D1FA7900E001221A7049000A3501336246541EA446002AD5D1F0BD38B5041C00
:400E00000A7E134B1B181D7D012A04D1281CFFF7C3FF051C02E0002000F0F4FF0C4B1B191D7563091F2214401E3AA240141C002D06D1074904339B005A58A2435A5005E029
:400E4000034A04339B0099580C439C5038BDC0461404002038B5174C201C0021BE22520001F0DFFB144B238098235B006380293BFF3B238402221A33E254201C24300F497B
:400E80000C31D63201F0C4FB0D490C1C0C340C230CE0A268E38A04E00B78537201310A32031C581E002BF7D120342B1C5D1E002BEFD138BD14040020C6EEFFFFB82700000C
:400EC000382600000B280BD81F220240012393401A1C430904339B0002495858104000E000207047140400200023024A9380024A136070471404002088030020F8B50C23BF
:400F00001AE06B010E4AD3185E68DB8A10E06B010B4AD3189F68A00000194000DA6961000B199B00D218385A318A01F05FFA231C5C1E002BEBD12B1C5D1E002BE1D1F8BD69
:400F400044260000C9B2062902D08318002119715300195AC3185980821800231372704770B54001094B18188B005918490083685C18067E012305E0201C311C2A1CFFF7F2
:400F8000E1FF2B1C5D1E002BF6D170BD4426000038B5051C4301064AD318DB8A04E0281C211CFFF7DDFF231C5C1E002BF7D138BD4426000010B50C2303E0201CFFF7E8FFE2
:400FC000231C5C1E002BF8D110BDC0469840031C534380204000801A41435818000A7047F0B583B0071C0E1C019201233BE06300985BF3185988884205D3431A321900250D
:401000001572012201E00B1A0022002A11D17D799D420ED233191B7A3A7A934205D3301C0199221CFFF78EFF1CE032190133137218E03D799D4204D27D799D4212D9002AE7
:4010400010D16B461B79062B0CD0090235192B79194301220823FFF7B9FF020A6300F3185A802871231C5C1E002BC0D1002003B0F0BDC046024A1168024B0B401360704779
:4010800000020B40FFFFF8FD024B9B68802018407047C0461404002010B50F4B9B68DB030FD40B280FD8430902339B000A4AD3185A681F230340DA40131CDB0705D40124EB
:4010C00004E0112402E0012400E00024002C01D100F06EFC201C10BD1404002008B5054B9B68DB0303D400F0E9FB002000E0112008BDC0461404002010B50F4B9B681B0623
:4011000018D400240120404211E0201CFFF7C4FF00280BD10A2C03D80122084B1A7002E00022064B1A70FFF7D9FF04E001340B2CEBD900E0112010BD140400208C0300207B
:4011400010B5174A53780133DBB253705078C0B2FFF7A2FF041E09D1114B5B780B2B02D100220F4B1A70FFF7B9FF15E00C4B5B780B2B0AD10B4A7533916899430B021B0A0D
:40118000040623439360002406E006498B681B021B0A020613438B60002CD2D110BDC0468C03002014040020074A084B1A6001380002074B1860054B1B68002BFBDB054A26
:4011C000024B1A607047C04640000040000001400003014040FF0080034A13681B0B1B03013818431060704700020B4070B5002512E06B010A4A9E58002406E0E000001B9C
:401200008000301800F0A2FB01346B01044AD3189B7DA342F2D801350B2DEAD970BDC046442600004001024B18184368D87A7047442600000203121A01238B40191C01397F
:401240008A4205D30302181A814203D9052002E0062000E00020C0B27047C04670B50E1CFFF7E0FF051C3188002200F027FA041C9F2D08D9FF235B00984204D92C4901F000
:401280008FF900291FD09F2D07D9FE2C05D9201CFF2101F085F9002917D09F2D07D97E2C05D9201C7F2101F07BF900290FD09F2D0FD93E2C0FD9201C3F2101F071F900295C
:4012C0000BD000240AE0042408E0032406E0022404E0002402E0002400E00124002C04D13188281CFFF7A6FF041C631EDBB2032B01D8102000E00020002C10D0002810D09D
:4013000064235843291C01F0C5F8002301E0013340000928FBD90A2804D9013B02E0002300E00023DBB21B012343337370BDC046FF010000F0B5474680B488B001ACFA2378
:401340009B002380424B638096235B01A3803C23E3731A3B3F4AD15C3F4801F09BF8A08100223E4B9A70FFF785FE002398460025002730E06B013A4AD3185C680C2323809F
:4013800001AEB089374901F085F8E072281C3C2100F0F0FB231C0A33336101337361301C00F096FF8046304B984200D9062701AB9B892E4A934205D8E37A012B0AD80223F5
:4013C000E37207E02A4A934204D8E37A072B01D80823E37201350B2DCCD901221F4B9A70013201AB9A7300252AE06B011C4AD3185C68231C0A3301AE059301330693434645
:401400000393E389F380231C10330793281C211CFFF724FF281C3C2100F0ACFB0743301C00F08AFF2080281C211CFFF717FF237B002B04D1281C3C2100F09CFB07430135C7
:401440000B2DD2D9381C08B004BC9046F0BDC046E507000014040020E02E00008C03002044260000DC050000870D0100C05D000080BB000010B5002407E06301044AD318AE
:401480005968201CFFF7EAFE01340B2CF5D910BD4426000008B5FFF7EDFF00F05DF8002008BDC046034970230A689A43503B13430B607047BC000020034A044B1A60C1220B
:4014C0005204034B1A60704700008301C0010B40C4010B40064A136806490B431360064A064B1A60C1225204054B1A607047C046A8020B400100001000008301C0010B402B
:40150000C4010B4070B50D1C161C04880123A3401C1C013CA00000194000642100F0BAFF01302B18A34200D9231C854201D3281A00E00020864203D39E4203D9062002E03C
:40154000062000E0002070BD01390843014B18607047C04600020B4010B5FFF747FE0024294B1C60294B1C601022294B1A60294B1C60294B1C60294B1C60294B1C60294A6E
:401580001460294B1C6029490868294B0340C020C00003430B6027490B688020400103430B600121244B196024490B68244803430B6080235B0423490B6023482349086049
:4015C0001360234A234B1A60FFF776FF2223224AD05CFFF7E9FDFFF765FF204B1B68204A1343204A1360242000F07AFD0F221E4B1A601E4B1C60053A1D4B1A60C02212035E
:401600001C4B1A6010BDC046F4000B40B4020B40C0020B4020030B4084010B4088020B4080020B4084020B4080010B4000040240FFF0FFFF94020B40A0020B40A8020B4036
:4016400001000010A4020B404112000088010B400000030190020B4014040020BC0000200010008000000B4000030B40F0010B4010030B4004020B4038B5041C00F039FD05
:401680000A490B687F25AB43094A1278A418A47A23430B6007490B68AB43074C2468A218527A13430B6000F028FD38BDC0010B40EC290000C4010B409405002038B5051C71
:4016C000141C01238B40181C0138002D02D0291C00F0E0FE074B1B78012B09D12133064AD35C5D43053C012C02D8A02D00D8800838BDC0468E0300201404002008B50E4B7F
:401700001B785B010D4AD3185B68D97A187B431F012B04D8000480239B04184300E00004074B1B78012B02D1FFF70EFF02E0081CFFF752FD08BDC0468D03002044260000C9
:401740008E03002008B5031CC07A19881A7BFFF7B5FF0004000C014B186008BD14030B4010B50A2000F03AFB0124314B1C600C2000F0B6FC2F4A304B1A6000222F4B1A6044
:4017800006322F4B1A602F4B1C60802252042E4B1A602E4B1C60832252002D4B1A60033AFF3A2C4B1A60013A2B4B1A60F02300E0013B274A1268520701D4002BF8D1002B45
:4017C00002D10822244B1A6000241B4B1C601B4B1C60832252001E4B1A600A2000F008FB0A2000F0F1FA164B1C60164B1C60164B1C605022154B1A604F3A184B1A600C4B7F
:401800001C60174A1368802149040B4313600222104B1A60F02300E0013B124A1268520701D0002BF8D1104A0B4B1A6010BDC04680010B4001010100B0020B40B4020B40BB
:4018400088020B4080020B4084020B40F0010B40F0000B40F8000B4040030B408C010B4000020B4000000B400103000008B5044A044B91680B439360FFF772FF08BDC04673
:40188000140400208000010070B5041C857E067E00F02FFC23681B680F22B24093431A1C0423B3401343666832680721A9408A4332602268136000F020FC70BD70B5144E46
:4018C0003378144D5B01EB185868134C0023237033785B01EB189968227893009B185B00CB180E4A1360FFF7C7FE33785B0158592178CA00531A9B00C018094B1860FFF73C
:40190000C3FF084800F03EFAFFF7B0FF70BDC0468D030020442600008F03002094050020900500207521000008B54001054BC058CB00591A89004018034B1860FFF7A4FFE1
:4019400008BDC046442600009005002038B5041C007EA57E21680B680F22824093430B6000F0C7FB61680B680722AA4093431A1C0623AB4013430B6000F0BFFBA1680B6897
:40198000607E0122824093430B6038BD08B5064B1B78012B06D1054B1868FFF7D7FF0022014B1A7008BDC046900300209005002070B5041C0E4E4301F3185D68FFF7E6FF33
:4019C000E4B20C490C700B785B019A590A4B1A600A4A7F2390689843031C906009780B439360281CFFF7AEFEFFF788FE70BDC046442600008D0300209005002014040020A9
:401A000038B54301124AD3185D68C9B2114C21709968227893009B185B00CB180E4A1360FFF7C6FF281CFFF727FE20780B4AC300181A800013689C4660441060FFF724FF10
:401A40000122074B1A70074800F09CF938BDC046442600008F03002094050020900500209003002001210000074B1A687F210A40064802431A60064A13680B4080210904AA
:401A80000B4313607047C046C0010B4000008301C4010B40F0B5474680B482B0071C0E1C90462C4A13785B012B49CB185B680193402333701078C0B2284B1978C9B2FFF7CD
:401AC0009FFFFFF7D1FF4025FFF7D0FE244A00E0013A244B1B7A5BB2002B01DA002AF7D1214B1B681C88BC4202D23378AB4333706D0833782B4333700198FFF7BDFD002D7F
:401B0000E2D1144B1B785B01134A9858134B1978CA00531A9B00C018144B1860FFF716FF0022134B1A70FFF7D5FC0198391C221CFFF7E8FC43461A7833789A4201D2424608
:401B40001370094B1B6832785A7202B004BC9046F0BDC0468D030020442600008F0300206666000014040020940500209005002090030020F0B54F4680B484B0051C894617
:401B80004301354AD3185F68012303AA137038888340181C01384843642100F07BFC0190EAB22E4B1A702E4800F0ECF83C1C0A3400222C4B1A7000260AE00198211C03AA2F
:401BC000FFF768FF0643274A13780133DBB213706B01214AD318234A12785B7E9342ECD803AB1B7801335B08BB7200221D4B1A7021E06B01184AD3189A681A4B1B789C006B
:401C0000E41864001419184B1C60637AB87A83420AD31B1AD8B260724B4658436330642100F038FC607201E0002363720D4A13780133DBB213706B01074AD318094A127838
:401C40005B7E9342D5D80022064B1A70301C04B004BC9146F0BDC046442600008D030020012100008F030020940500200004000C014B18607047C046080106400004000C2B
:401C8000014B18607047C0461401064038B5041C0D1C00F02EFAAC40024B1C6000F02DFA38BDC0460800064008B500F022FA064A116801230B43136000F01FFA012018210B
:401CC000FFF7E4FF08BDC04600000640014B18607047C0463801064008B580229204084B1A600C22074B1A600120FFF7EFFFFA200001FFF7C3FF0020FFF7B8FF08BDC046CE
:401D0000000106402401064008B5064B1B78002B04D1FFF7E1FF0122024B1A70FFF7C4FF08BDC04691030020014B18607047C04630010640014B98667047C0460000002029
:401D400010B5041C00F0D5F9044A1168044B0B40A4051C43146000F0D0F910BD08E400E0FFFF3FFF8022D200014B1A607047C04600E100E08022D200014B1A607047C046A6
:401D800080E100E010B5041CFFF7F4FF201CFFF7D1FF0320FFF7D4FFFFF7E4FF10BDC046024A1168024B0B401360704700000740FFFFFFBF034B18688023DB05184000D077
:401DC00001207047000007401F2318401E3B8340181C014B1860704700E100E01F2318401E3B8340181C014B1860704780E100E01F2318401E3B8340181C014B1860704793
:401E000080E200E001BE704710B5041C06E0084B586800F065F9074B9C46644480231B029C42F4D8024B9868604300F059F910BDC00000200080FFFF30B583B000F0DCF83F
:401E4000002848D000F055F9041C244B1B6807221A409200131C1833214A12681207920FD3401A1C1F4B19681F4B19401F4B53438020C00184466344DB0B013B5B055B0DF1
:401E80000B43A02149031943192A02D8184A13430BE0184BD31818781A3A174B9B5CC318FF2B00D9FF239B050B430E4A1360134D2B680193302000F0E1F9114A136880214F
:401EC000C9050B4313601420FFF79EFF019B2B60201C00F012F903B030BDC046080F0340280003400800074000F800C040420F000000D43FCDF1FF0FF029000030001040B3
:401F000000000740F0B583B0041E182C0BD01C2809D0202807D0242805D0282803D02C2801D0302849D100F0E4F80190FFF742FF002803D0FFF734FF012600E00026214ADA
:401F4000136807218B4313601F4BE3181B78DBB21E4A13601E4A13688B4313601D4803687F229343191C1C4BE3181B7813400B430360322000F0B4F8182C16D9114F3B6860
:401F80000725AB431A1C231C1C3B9B082B4013433B60322000F0A4F83A68AA43231C183B9B082C1C1C4014433C60012E01D1FFF743FF019800F0A1F802E00020FFF722FF8F
:401FC00003B0F0BD080F0340CDF1FF0F0C0F0340100F0340180F0340B4F1FF0F08B500F088F8044A136804218B43136030BF00F084F808BD10ED00E0034B1B68002B01DA4E
:40200000012000E00020704700000740014A024B1A6070476588EDAC38000340024A116801230B43136070474400034008B5044B5B68002B00D09847FFF7F0FF08BDC04676
:4020400094030020014BD8667047C0460000002010B5041C00F04DF8044A13689B009B08A4071C43146000F048F810BD08E400E080221201014B1A607047C04600E100E0E1
:4020800080221201014B1A607047C04680E100E010B5041CFFF7F4FF201CFFF7D3FF0320FFF7D6FFFFF7E4FF10BDC046031C04490868FE2202400120184010430860704712
:4020C0000001044004490A68FD231A404000FB3B184010430860704700010440000000000230800803D001300238FCD1C046C0467047EFF3108072B6704780F31088704742
:4021000083225200134B1A60134B1B785B01134AD3185B68124A12681204120C198801238B40013B9A4206D20E4B19680E4B1B785B00CA5205E00B4A11680B4A12785200CD
:402140008B520A4BDA880132DA80094A99680A409A607047F0000B408D03002044260000D0000B4094050020EC290000140400207FFFFEFF38B5374B1A78374C52011059BE
:40218000364A1578E9004A1B9200801883214900334A11601B785B01E3185B68314A12681204120C198801238B40013B9A4206D22D4B19682D4B1B785B00CA5205E02A4A95
:4021C00011682A4A127852008B52FFF7BFFB214B1A78214952018A1850681B785B01CB189B7D1E4A1278013B93421BD91B4C23780133DBB22370174D2B785B01CB189968F6
:40220000227893009B185B00CB18174A1360FFF733FA2878C0B22178C9B2FFF785FBFFF79FFA15E000220D4B1A70114A114B91680B409360104A1278012A02D1FEF780FF21
:4022400006E00B4A80218B439360D3880133D38038BDC0468D030020442600008F030020F0000B40D0000B4094050020EC29000014040020FFFFFEFF8C03002038B5041C05
:40228000FFF737FF051C102C05D8104A136803218B43136016E0202C07D80C490B6803229343023A13430B600CE0302C07D807490B6803229343013A13430B6002E00020BA
:4022C000FFF7A0FD281CFFF718FF38BD3000104070B5041CFA26036980881D78E37BB60058431349704300F0D5F875436188684300F0D0F8051C2088311C684300F0CAF825
:40230000A3890C49584300F0C5F8013063691022082809D80822042806D80422022803D801D1187001E001221A70281C70BDC046F049020000E1F50538B5041C63698089DE
:40234000197800F0A7F8051C60880304181A23691978A388594300F09DF8A37B1149DD40684300F097F8E3880A21584300F092F800230D4AA16810258A425B410222D31AF7
:4023800062325343984203D9013DEDB24008F9E74B236421584300F07DF8A4692080281C38BDC046A0860100A761000010B50024A34200D00C880088131C800080B28242CB
:4023C00000D2031C9AB2A24200D2231C9AB20B805308FF2B01D9FF2300E0DBB28B70CB70D308FF2B00D9FF230B7110BD8B0813800F2393720023C90851809080D080108154
:40240000D3727047937A30B594885B00041B9080DBB2002C01DB937202E00133937264420F23957A1D40538895729C4203D2012B03D9013B00E0013353800F2D05D0002D11
:4024400003D053889D00AC4204D90023D0801081D3721DE0D488844201D9D08003E01489844200D21081D07A092802D80130D0720EE01089D488001B80B2834204D98908E0
:402480008B4203D9013B00E0013353805388138030BD0000002243088B4274D303098B425FD3030A8B4244D3030B8B4228D3030C8B420DD3FF22090212BA030C8B4202D33D
:4024C0001212090265D0030B8B4219D300E0090AC30B8B4201D3CB03C01A5241830B8B4201D38B03C01A5241430B8B4201D34B03C01A5241030B8B4201D30B03C01A524116
:40250000C30A8B4201D3CB02C01A5241830A8B4201D38B02C01A5241430A8B4201D34B02C01A5241030A8B4201D30B02C01A5241CDD2C3098B4201D3CB01C01A524183092A
:402540008B4201D38B01C01A524143098B4201D34B01C01A524103098B4201D30B01C01A5241C3088B4201D3CB00C01A524183088B4201D38B00C01A524143088B4201D341
:402580004B00C01A5241411A00D20146524110467047FFE701B5002000F00CF802BDC0460029F7D003B5FFF775FF0EBC4243891A1847C0467047C046014B18687047C0462B
:4025C000340100200E4B70B500251E1C0D4CE41AA410A54204D0AB00F35898470135F8E700F014FA084B00251E1C084CE41AA410A54204D0AB00F35898470135F8E770BD71
:40260000182A0000182A0000182A0000202A0000002310B5934203D0CC5CC4540133F9E710BD031C8218934202D019700133FAE77047000000000000202020202020202024
:40264000202020209C2800003804002010050020000000008403002001000100010100004C030020B82800004A0400201A0500200000000080030020010001000101000037
:4026800040030020D42800005C04002024050020000000007C030020010001000101000034030020F02800006E0400202E050020000000007803002001000100010100005C
:4026C000280300200C2900008004002038050020000000007403002001000100010100001C030020282900009204002042050020000000007003002001000100010100007A
:402700001003002044290000A40400204C050020000000006C03002001000100010100000403002060290000B6040020560500200000000068030020010001000101000099
:40274000F80200207C290000C80400206005002000000000640300200100010001010000EC02002098290000DA0400206A05002000000000600300200100010001010000BB
:40278000E0020020B4290000EC04002074050020000000005C0300200100010001010000D4020020D0290000FE0400207E05002000000000580300200100010001010000DB
:4027C000C80200200C00640028280A031E6420040000A00000000C00640028280A031E6420040000A00000000C00640028280A031E6420040000A00000000C0064002828F6
:402800000A031E6420040000A00000000C00640028280A031E6420040000A00000000C00640028280A031E6420040000A00000000C00640028280A031E6420040000A0000C
:4028400000000C00640028280A031E6420040000A00000000C00640028280A031E6420040000A00000000C00640028280A031E6420040000A00000000C00640028280A0352
:402880001E6420040000A00000000C00640028280A031E6420040000A0000000000002400800044000000440040004400F0000000100000000000000000002400800044007
:4028C0000000044004000440F0000000020000000401030000000240080004400000044004000440000F0000040000000802060000000240080004400000044004000440FB
:4029000000F00000080000000C030900000402400804044000040440040404400F000000010000000000000000030240080304400003044004030440F00000000200000035
:402940000401030000020240080204400002044004020440000F000004000000080206000002024008020440000204400402044000F00000080000000C0309000002024094
:402980000802044000020440040204400000F0002000000014050F00000202400802044000020440040204400000000F400000001806120000020240080204400002044088
:4029C00004020440000000F0800000001C071500000302400803044000030440040304400F000000010000000000000000000000EEDBC9B9AA9B8E82766B60564D443B3379
:402A00002C241D17100A040043000000F8B5C046F8BC08BC9E46704731010000450B0000F8B5C046F8BC08BC9E46704709010000402A000088000020B00000006004000073
:402A400000000000D90A0000C50A0000B10A00009D0A0000890A0000750A0000610A00004D0A0000390A0000250A0000110A0000FD0900000200000401000000000070174D
:402A8000E02E00000C000000001BB7000000000000000000000000000000000000000000000000000000000000000000082A000000000000000000000000000000000000F8
:402AC0000000000000000000000000000000000000000000000000000000000000000000000000000000000000000000D400002000000000000000000000000000000000E2
:402B00000000000000000000000000000000000000000000000000000000000000000000000000000000000000000000000000000000000000000000000000000000000095
:402B40000000000000000000000000000000000000000000000000000000000000000000000000000000000000000000000000000000000000000000000000000000000055
:402B80000000000000000000000000000000000000000000000000000000000000000000000000000000000000000000000000000000000000000000000000000000000015
:402BC00000000000000000000000000000000000000000000000000000000000000000000000000000000000000000000000000000000000000000000000000000000000D5
:0200000490303A
:02000000028E6E
:0200000490402A
:1000000000000000000000000000000000000000F0
:0200000490501A
:0C0000000002190911A90001191614379B
:0200000490600A
:0100000001FE
:00000001FF